:100000000C94B90D0C94D70D0C94D70D0C94D70DFE
:100010000C94D70D0C94D70D0C94D70D0C94D70DD0
:100020000C94D70D0C94D70D0C9407140C94D70D89
:100030000C94D70D0C94D70D0C94D70D0C94D70DB0
:100040000C94D70D0C94D70D0C94D70D0C94D70DA0
:100050000C94060E0C94D70D0C94D70D0C94D70D60
:100060000C94D70D0C94D70D0C94D70D0C94D70D80
:100070000C94D70D0C94D70D0C94D70D0C94D70D70
:100080000C94D70D0C94D70D0C94D70D0C94D70D60
:100090000C94D70D0C94D70D120100020900010831
:1000A000AAAACCCC0001000000010902190001013C
:1000B00000E0320904000001090000000705810387
:1000C00001000C092906A900326400FF1201000298
:1000D00000000008AAAA555500000000000409020B
:1000E000000F010000801201000200000008AAAA0F
:1000F000BBBB0000000000010902160001010080E6
:10010000010904000000FE0102000421B42F1201C5
:10011000000200000008AAAA5555000000000002D5
:1001200009024D0A01010080010904000000FE01DE
:1001300002000904000000FE0102000904000000A2
:10014000FE0102000904000000FE01020009040093
:100150000000FE0102000904000000FE0102000987
:10016000000904000000FE0102000904000000FE76
:100170000102000904000000FE0102000904000061
:1001800000FE0102000904000000FE010200090453
:10019000000000FE0102000904000000FE01020050
:1001A00002000904000000FE010200090400000032
:1001B000FE0102000904000000FE01020009040023
:1001C0000000FE0102000904000000FE0102000917
:1001D00004000000FE0102000904000000FE01020C
:1001E0000102000904000000FE01020009040000F1
:1001F00000FE0102000904000000FE0102000904E3
:10020000000000FE0102000904000000FE010200DF
:100210000904000000FE0102000904000000FE01C4
:10022000FE0102000904000000FE010200090400B2
:100230000000FE0102000904000000FE01020009A6
:1002400004000000FE0102000904000000FE01029B
:10025000000904000000FE0102000904000000FE85
:1002600000FE0102000904000000FE010200090472
:10027000000000FE0102000904000000FE0102006F
:100280000904000000FE0102000904000000FE0154
:1002900002000904000000FE010200090400000041
:1002A0000000FE0102000904000000FE0102000936
:1002B00004000000FE0102000904000000FE01022B
:1002C000000904000000FE0102000904000000FE15
:1002D0000102000904000000FE0102000904000000
:1002E000000000FE0102000904000000FE010200FF
:1002F0000904000000FE0102000904000000FE01E4
:1003000002000904000000FE0102000904000000D0
:10031000FE0102000904000000FE010200090400C1
:1003200004000000FE0102000904000000FE0102BA
:10033000000904000000FE0102000904000000FEA4
:100340000102000904000000FE010200090400008F
:1003500000FE0102000904000000FE010200090481
:100360000904000000FE0102000904000000FE0173
:1003700002000904000000FE010200090400000060
:10038000FE0102000904000000FE01020009040051
:100390000000FE0102000904000000FE0102000945
:1003A000000904000000FE0102000904000000FE34
:1003B0000102000904000000FE010200090400001F
:1003C00000FE0102000904000000FE010200090411
:1003D000000000FE0102000904000000FE0102000E
:1003E00002000904000000FE0102000904000000F0
:1003F000FE0102000904000000FE010200090400E1
:100400000000FE0102000904000000FE01020009D4
:1004100004000000FE0102000904000000FE0102C9
:100420000102000904000000FE01020009040000AE
:1004300000FE0102000904000000FE0102000904A0
:10044000000000FE0102000904000000FE0102009D
:100450000904000000FE0102000904000000FE0182
:10046000FE0102000904000000FE01020009040070
:100470000000FE0102000904000000FE0102000964
:1004800004000000FE0102000904000000FE010259
:10049000000904000000FE0102000904000000FE43
:1004A00000FE0102000904000000FE010200090430
:1004B000000000FE0102000904000000FE0102002D
:1004C0000904000000FE0102000904000000FE0112
:1004D00002000904000000FE0102000904000000FF
:1004E0000000FE0102000904000000FE01020009F4
:1004F00004000000FE0102000904000000FE0102E9
:10050000000904000000FE0102000904000000FED2
:100510000102000904000000FE01020009040000BD
:10052000000000FE0102000904000000FE010200BC
:100530000904000000FE0102000904000000FE01A1
:1005400002000904000000FE01020009040000008E
:10055000FE0102000904000000FE0102000904007F
:1005600004000000FE0102000904000000FE010278
:10057000000904000000FE0102000904000000FE62
:100580000102000904000000FE010200090400004D
:1005900000FE0102000904000000FE01020009043F
:1005A0000904000000FE0102000904000000FE0131
:1005B00002000904000000FE01020009040000001E
:1005C000FE0102000904000000FE0102000904000F
:1005D0000000FE0102000904000000FE0102000903
:1005E000000904000000FE0102000904000000FEF2
:1005F0000102000904000000FE01020009040000DD
:1006000000FE0102000904000000FE0102000904CE
:10061000000000FE0102000904000000FE010200CB
:1006200002000904000000FE0102000904000000AD
:10063000FE0102000904000000FE0102000904009E
:100640000000FE0102000904000000FE0102000992
:1006500004000000FE0102000904000000FE010287
:100660000102000904000000FE010200090400006C
:1006700000FE0102000904000000FE01020009045E
:10068000000000FE0102000904000000FE0102005B
:100690000904000000FE0102000904000000FE0140
:1006A000FE0102000904000000FE0102000904002E
:1006B0000000FE0102000904000000FE0102000922
:1006C00004000000FE0102000904000000FE010217
:1006D000000904000000FE0102000904000000FE01
:1006E00000FE0102000904000000FE0102000904EE
:1006F000000000FE0102000904000000FE010200EB
:100700000904000000FE0102000904000000FE01CF
:1007100002000904000000FE0102000904000000BC
:100720000000FE0102000904000000FE01020009B1
:1007300004000000FE0102000904000000FE0102A6
:10074000000904000000FE0102000904000000FE90
:100750000102000904000000FE010200090400007B
:10076000000000FE0102000904000000FE0102007A
:100770000904000000FE0102000904000000FE015F
:1007800002000904000000FE01020009040000004C
:10079000FE0102000904000000FE0102000904003D
:1007A00004000000FE0102000904000000FE010236
:1007B000000904000000FE0102000904000000FE20
:1007C0000102000904000000FE010200090400000B
:1007D00000FE0102000904000000FE0102000904FD
:1007E0000904000000FE0102000904000000FE01EF
:1007F00002000904000000FE0102000904000000DC
:10080000FE0102000904000000FE010200090400CC
:100810000000FE0102000904000000FE01020009C0
:10082000000904000000FE0102000904000000FEAF
:100830000102000904000000FE010200090400009A
:1008400000FE0102000904000000FE01020009048C
:10085000000000FE0102000904000000FE01020089
:1008600002000904000000FE01020009040000006B
:10087000FE0102000904000000FE0102000904005C
:100880000000FE0102000904000000FE0102000950
:1008900004000000FE0102000904000000FE010245
:1008A0000102000904000000FE010200090400002A
:1008B00000FE0102000904000000FE01020009041C
:1008C000000000FE0102000904000000FE01020019
:1008D0000904000000FE0102000904000000FE01FE
:1008E000FE0102000904000000FE010200090400EC
:1008F0000000FE0102000904000000FE01020009E0
:1009000004000000FE0102000904000000FE0102D4
:10091000000904000000FE0102000904000000FEBE
:1009200000FE0102000904000000FE0102000904AB
:10093000000000FE0102000904000000FE010200A8
:100940000904000000FE0102000904000000FE018D
:1009500002000904000000FE01020009040000007A
:100960000000FE0102000904000000FE010200096F
:1009700004000000FE0102000904000000FE010264
:10098000000904000000FE0102000904000000FE4E
:100990000102000904000000FE0102000904000039
:1009A000000000FE0102000904000000FE01020038
:1009B0000904000000FE0102000904000000FE011D
:1009C00002000904000000FE01020009040000000A
:1009D000FE0102000904000000FE010200090400FB
:1009E00004000000FE0102000904000000FE0102F4
:1009F000000904000000FE0102000904000000FEDE
:100A00000102000904000000FE01020009040000C8
:100A100000FE0102000904000000FE0102000904BA
:100A20000904000000FE0102000904000000FE01AC
:100A300002000904000000FE010200090400000099
:100A4000FE0102000904000000FE0102000904008A
:100A50000000FE0102000904000000FE010200097E
:100A6000000904000000FE0102000904000000FE6D
:100A70000102000904000000FE0102000904000058
:100A800000FE0102000904000000FE01020009044A
:100A9000000000FE0102000904000000FE01020047
:100AA00002000904000000FE010200090400000029
:100AB000FE0102000904000000FE0102000904001A
:100AC0000000FE0102000904000000FE010200090E
:100AD00004000000FE0102000904000000FE010203
:100AE0000102000904000000FE01020009040000E8
:100AF00000FE0102000904000000FE0102000904DA
:100B0000000000FE0102000904000000FE010200D6
:100B10000904000000FE0102000904000000FE01BB
:100B2000FE0102000904000000FE010200090400A9
:100B30000000FE0102000904000000FE010200099D
:100B400004000000FE0102000904000000FE010292
:100B5000000904000000FE0102000904000000FE7C
:100B600000FE0102000904000000FE010212010063
:100B70000200000008AAAA55550000000000030961
:100B800002120001010080010904000000FE0102C0
:100B900000090212000101008009020000010100A9
:100BA00080010904000000FE01020009023000017A
:100BB000010080010904000000FE0102003E210046
:100BC0000000005F5053334954415F800000000033
:100BD00046500080000000003DEE7012010002004F
:100BE0000000084C05EB0200000000000109022093
:100BF0000001000080010904000002FF000000075E
:100C00000502020800000705810208000012010029
:100C10000200000008AAAAC0DE00000000000109CE
:100C200002120001010080010904000000FE01021F
:100C3000000902120001000080FA0904000000FE11
:100C40000102000000000000005F5053334954418E
:100C50005F3863F00038A01000388000017884F815
:100C6000066484007F6084EDE038A5FFF87CC3282B
:100C70002A7CC4292A282500004082FFF0388400FD
:100C8000587C8903A64E8004207C0802A6F821FF28
:100C900061FB610078FB810080FBA10088FBC10043
:100CA00090FBE10098F80100B03BE000017BFFF809
:100CB000067FE3FB786463007F6063F0204B8D3434
:100CC0006D7FE4FB786484002E6084B1287FE3FBB1
:100CD000786463007F6063F010F86401207FE5FBB7
:100CE0007864A5007F60A5EEF4806500002803000D
:100CF0000041820018808500047C63FA1490830010
:100D00000038A500084BFFFFE4EB610078EB8100A1
:100D100080EBA10088EBC10090EBE10098E80100B6
:100D2000B0382100A07C0803A6386000017863F881
:100D3000066463007F6063EDE03880000038A00245
:100D4000204B84E254000490E0E8820F08000490F5
:100D5000E4E87C0020000490E8F86400000004F05F
:100D6000A8487B02AD002AAFF0485541FC0004EDD5
:100D700018388000000004ED1C908300000004ED92
:100D8000204E800020003BA89001000000000505D7
:100D9000D0487AF124000234D0487DC1F5000E839A
:100DA000D4487172F10004F2606000000000057325
:100DB00098600000000005743060000000000574B9
:100DC0003C600000000005734C60000000000573EB
:100DD000F4480000B4000574BC3BE000000005745A
:100DE000C04BFFFEAC0004F890600000000004F966
:100DF00034600000000004FAE0600000000004FC21
:100E000018600000000004FC2C6000000000017C61
:100E1000BCE863000000017CC04E80002000017C23
:100E2000C8F883000000017CCC4E80002000017CCB
:100E3000D4487E783800050B3C3860000100050B73
:100E4000404E800020000000000000000000000074
:100E500000386000014E800020386000004E8000A5
:100E60002080000000007FF150800000000033E788
:100E70002080000000007FF84280000000007FF02A
:100E80004080000000007FF05080000000007FF0F4
:100E90006080000000007FF080800000000033E7E9
:100EA0002080000000007FF0C8800000000033E7D1
:100EB0002080000000007FF124800000000033E764
:100EC0002080000000007FF12C800000000033E74C
:100ED00020F821FF817C0802A6F8010090388000EC
:100EE0000038A000014B8D390580A3000838600050
:100EF000003C80AAAA6084C0DE7C042840418200B5
:100F0000083860FFFF7C6307B4E80100907C0803A9
:100F1000A6382100804E800020F821FF817C080245
:100F2000A6F8010090388000004B8D38ED38810024
:100F30007038A00000F8A4000038C021AAB0C40096
:100F40000038C00000B0C4000638C0000178C6F800
:100F50000664C6007F60C6F07038E000004B8D3834
:100F60002138600000E80100907C0803A6382100C9
:100F7000804E800020386000004E8000202C03004E
:100F8000004082001C386000017863F8066463004A
:100F90007F6063F7F438800001908300104E80007A
:100FA00020F821FF317C0802A6F80100E0FBE100F7
:100FB000C8388100704B9B49D93BE000017BFFF8AA
:100FC000063880000267E3007F6063F7AC9083001F
:100FD0000067FF007F63FFF7F4E87F00002C230029
:100FE000004182000C388000274B86333138800066
:100FF00027386008004B862EE5F87F0000E8810066
:10100000704B84E141E8610070388000274B8633E3
:101010000DE87F00004B84E155E89F00007C641AD6
:1010200014F87F000838600000EBE100C8E8010018
:10103000E0382100D07C0803A64E80002028230041
:101040000041820154888300002C04002F4082005C
:10105000148C8300012C04002F4182FFF83863FFB9
:10106000FF7C7D1B783BE000017BFFF80667FB00FF
:101070007F637BF80CEB5B0000283A0000418200A4
:101080004C7FA3EB78E89A000028240000418200FE
:101090003C80BA00104B84E101282300004082000C
:1010A0002480BA00107C9D2A14E87A00087C7D1BFD
:1010B0007880BA00147C632A144B84E089480000CD
:1010C000D83B5A00184BFFFFBC67E4007F6084F8F0
:1010D0004E38A000094B84E0C12823000040820064
:1010E0006867FA007F635AF846EB7A0000283B00F5
:1010F000004082002438800027386008004B862D8D
:10110000DDF87A00007C7B1B7867E4007F6084F860
:10111000584B84E031387B000B67E5007F60A5F712
:10112000F4E8850000282400004182000C7C9B2309
:1011300078E8650008389D00094B84E0097F7DDB75
:1011400078418200547FA3EB787FE4FB78648400CD
:101150007F6084F83838A000094B84E03D282300E4
:10116000004082003467FF007F63FFF7F4807F0058
:10117000102803000041820020E87F00002823009F
:101180000041820014E87F0008389D00094B84DF8D
:10119000B5EBBF00007F84E3787FA3EB784B84DF5F
:1011A000CD4BAABCA47C0802A6F821FE61FB61001D
:1011B00078FB810080FBA10088FBC10090FBE1006F
:1011C00098F80101B07C7D1B787C9E23783BE00081
:1011D000017BFFF806EB829600EB9C0068EB9C001D
:1011E00018EB620F08E93D00188129003079298445
:1011F000022C09002940820058E89C00107885C123
:10120000E478A546202C0500FF4182001860840088
:1012100003F89C001038600006907E000048000033
:101220001460840002F89C00103860002C907E004E
:101230000080BC0004E89C0008E87B00007D232AB5
:1012400014F93B00004B87CC29480000EC7FA3EB4E
:10125000787FC4F3784B84F4197FFDFB7867BD0079
:101260007F63BDF808807D000080BC00047C632A99
:1012700014907D0000E89C00107885C1E478A546B4
:10128000202C0500FF408200B0E87B000038800081
:101290000038C000007CE3221480A700007CC62A2E
:1012A0007838840004282404004082FFEC807D000C
:1012B0000078C607C67CC61B7838600000907D00A9
:1012C000007FE7FB7864E7007F60E7F71CE86700D2
:1012D00000282300004182006038E700107C2330A2
:1012E000404082FFECE8A7FFF8E8FB0000806500C3
:1012F00000280300004182004028030001418200D1
:10130000202803000241820028808500047C633A83
:10131000149083000038A500084BFFFFD4806500BF
:10132000047CA51A1438A500084BFFFFC438A5009B
:10133000084BFFFFBC38600000EB610078EB8100D8
:1013400080EBA10088EBC10090EBE10098E801017F
:10135000B0382101A07C0803A64E8000207C080242
:10136000A6F821FF61FB610078FB810080FBA100F2
:1013700088FBC10090FBE10098F80100B03BE00061
:10138000017BFFF80667FB007F637BF814839B00FB
:1013900000281C00004182006C281C0008408000CE
:1013A000B828230001408200B028240000418200B8
:1013B0000C3B9C0001939B0000EB9B00087C24E00D
:1013C00040408200943B800001939B000067E40052
:1013D0002E6084B128EB9B0010FB840030EB9B0057
:1013E00018FB84003867FC007F639CF010FB8401CD
:1013F000203B800000939B00003860010048000003
:1014000034706300FF2823000A4080005867FB0007
:101410007F637BF864787C1F247F7BE214EBBB0046
:10142000007C8323787CA42B787CC533784800002B
:101430003DEB610078EB810080EBA10088EBC100FF
:1014400090EBE10098E80100B0382100A07C08038F
:10145000A64E8000203C608001606300034BFFFFCC
:10146000D43860FFFF4BFFFFCC7FA903A64E80045A
:101470002067FB007F637BF814F87B00083B80004B
:1014800001939B000067E4002E6084B128E86401AA
:1014900028EB840030F8640030FB9B0010EB8400E4
:1014A00038F8640038FB9B0018F8640120386000AD
:1014B000004E800020386001004E8000204B87C91C
:1014C000B04B84DAD47C6903A67C8323787CA42B7C
:1014D000784E8004204B862A044B862E40386000CC
:1014E00000396000FF4400002267FB007F637BF847
:1014F00034907B0000386000004E8000207C641B2C
:101500007867FB007F637BF80CE87B0000F89B00AA
:10151000004E800020392000017929F80665290055
:101520007F6129F83480090000280000014182F918
:1015300024280000024182F924E92296887C0802CE
:10154000A64B850EE8392000017929F806652900A7
:101550007F6129F83480090000280000004082F8EB
:10156000F4E92296887C0802A64B850EC0A0556F30
:101570003D002CB8FD80000000007FF7648C0A94C9
:101580008C000D99B180000000007FF78CA2BC1A7E
:101590005600052ADC80000000007FF7D06B702821
:1015A000020002001780000000007FF780000000AA
:1015B00000000000000030535438600082005F3F9C
:1015C000C038600001005F3FC44E80002000000072
:1015D000000002EEF060000000000000000022B8F1
:1015E000885F746F6F0022B88C6C322E780022B83E
:1015F000906D6C23720022B8946F6F74000000002D
:101600000100000018002367E82F64657600236757
:10161000EC5F626476002367F0642F505300000093
:1016200000000D68B85F746F6F000D68BC6C322EDF
:1016300078000D68C06D6C2372000D68C46F6F7404
:10164000000000000000000000000000000000009A
:10165000000000000000000000000000000000008A
:10166000000000000000000000000000000000007A
:10167000000000000000000000000000000000006A
:101680000000000000000000022F6465765F6264C5
:101690007664006D6F640000000000000000002F01
:1016A0006170705F686F6D65002F6465765F75733C
:1016B000623030300080000000007FF620800000A3
:1016C00000007FF66480000000007FF66C80000060
:1016D00000007FF67080000000007FF6748000003C
:1016E00000007FF68480000000007FF68880000004
:1016F00000007FF68C80000000007FF698800000DC
:1017000000007FF6AC80000000007FF6640000005F
:1017100000000000000000000000000000000000C9
:1017200000000000000000000000000000000000B9
:1017300000000000000000000000000000000000A9
:101740000000000000000000000000000000000099
:101B30000080000000003DEE7880000000003DEED7
:101B400088800000000033E720E883FFF0E863FFAF
:101B5000F8E8A30018386310007C0428004082FFD6
:101B6000F438C3F0207CC903A64E80042004000092
:101B7000000011241FBECFEFD0E2DEBFCDBF11E0C9
:101B8000A0E0B1E0E2EFFEE200E00BBF02C0079090
:101B90000D92A431B107D9F711E0A4E1B1E001C081
:101BA0001D92AA33B107E1F76AD30C9477170C940E
:101BB0000000E0911301FF27E7FDF095E45FFE4F81
:101BC0008F778083E3EEF0E080838081806880837C
:101BD0000895982F809113018917B9F090931301FC
:101BE000E92FFF27E7FDF095DF01A45FBE4F8C9141
:101BF00087FD1C92E45FFE4F80818F778093E30026
:101C00008091E30080688093E30008951F920F9213
:101C10000FB60F9211248F938BEF809385008EE186
:101C20008093840080912701882329F080912701E7
:101C300081508093270180912801882389F0809129
:101C4000280181508093280180912801882341F444
:101C5000809120018F3121F08BB18F7080618BB921
:101C60008F910F900FBE0F901F90189581E0809379
:101C7000E9008091E80085FF18C090912101992327
:101C8000A1F080912201882339F08091EB008860D7
:101C90008093EB00109222019093F1008091E80074
:101CA0008E778093E800109221010895FC01109234
:101CB00026011092250121E030E0C9010E2E02C05C
:101CC000880F991F0A94E2F7809321013197EE0F54
:101CD000FF1FDF01A050BF4F83E091E08D939C93E5
:101CE000EC5EFE4F318320830895FC0110922401A5
:101CF0001092230121E030E0C9010E2E02C0880FAE
:101D0000991F0A94E2F7809321013197EE0FFF1F8C
:101D1000DF01A050BF4F80E091E08D939C93EC5E7B
:101D2000FE4F318320830895FA016091380170914C
:101D30003901923081F1993209F4AEC0913009F045
:101D4000B4C0809113018330D1F084303CF48130F1
:101D500081F082308CF4882349F0A7C08530A9F047
:101D6000853084F0863009F0A0C012C048E950E008
:101D70006BC04CEC50E068C046EE50E065C04EE0F1
:101D800051E062C04DE65BE05FC04BED5BE05CC0E4
:101D90004DE05CE059C090911301933009F440C0CC
:101DA00094303CF49130A1F092307CF5992359F0B5
:101DB0007CC0953009F468C095300CF441C0963071
:101DC00009F073C066C04AEA50E029E130E071C012
:101DD000843008F06AC06830710529F041E35CE0A6
:101DE00020E03FE004C04EED50E028E030E08330DA
:101DF00009F05FC06930710508F45BC085E080932D
:101E000020018AE08093270154C088E0809320015C
:101E10008FE08093270148EF50E026E130E049C091
:101E2000813049F46930710530F08BE080932001F6
:101E30008AE08093270140E251E02DE43AE039C086
:101E4000882329F44FE75BE022E130E032C08130A3
:101E500059F46830710519F049E95BE0F5CF41E9C3
:101E60005BE028E030E025C08230F9F4693071058C
:101E700030F080E18093200184E1809327014BEAD8
:101E80005BE020E330E015C04DEE5BE020E230E0A7
:101E900010C04FE15CE0D8CF80911301882329F472
:101EA00043EC50E029E030E004C040E050E020E0A6
:101EB00030E051834083C90108950895089508953D
:101EC00008950895089582E08093E9008091E800E4
:101ED00085FF1CC088E090E060E070E0C7D780918B
:101EE000E8008B778093E80080912B0190912C0182
:101EF000089690932C0180932B018034910534F047
:101F000083E18093200182E38093270181E0809325
:101F1000E9008091E80085FF2DC080912001833188
:101F200049F580912701882329F580912901909115
:101F30002A0180349105F4F48F5C944E68E070E0DF
:101F400040E050E052D78091E8008E778093E8001F
:101F50008091290190912A01089690932A018093FB
:101F600029018034910534F084E1809320018FE0D1
:101F7000809327010895982FEFE4F3EC3197F1F760
:101F800000C000008BB18F70892B8BB9EFE4F3ECAC
:101F90003197F1F700C000008BB18F70862B8BB9A1
:101FA000EBCF81E061EC42E069D3882329F480E241
:101FB00090E060E370E0DFDF82E060EC42E05ED35F
:101FC000882329F480E290E060E370E0D4CF0895A4
:101FD0001F93809113018630A1F4809133018A3AD6
:101FE00009F023C18091E800877F8093E800809109
:101FF000E8008E778093E80054D38FE1809320012E
:1020000019C1853059F4809133018B3009F00DC12D
:102010008091E800877F8093E8002EC0882309F034
:1020200004C180913201803A71F580913301882397
:1020300009F0FBC08091340190913501892B09F0A2
:10204000F4C08091360190913701892B09F0EDC0E1
:102050008091380190913901049709F0E6C0809190
:10206000E800877F8093E8001092F1001092F10061
:102070001092F1001092F1008091E8008E77809329
:10208000E8000FD3D7C0833AB1F58091330188239C
:1020900009F0CBC08091340190913501892B09F072
:1020A000C4C08091380190913901049709F0BDC0F6
:1020B000E09136018E2F8150863008F0BBC08091B0
:1020C000E800877F8093E800F0E03197EE0FFF1F74
:1020D000DF01A050BF4F8C9111969C918093F1002D
:1020E0009093F100EC5EFE4F808191818093F1002E
:1020F0009093F100C1CF833209F097C080913301F2
:10210000833009F048C08091380190913901892BC2
:1021100009F041C010913601812F8150863008F0BE
:1021200089C08091E800877F8093E8008091E80073
:102130008E778093E800B5D280913401909135017B
:102140008430910591F0089709F074C0163009F0B9
:1021500071C080912001882309F06CC082E08093D7
:1021600020018FE08093270165C0E12FF0E081E03E
:1021700090E0012E02C0880F991F0A94E2F7809325
:102180002101EE0FFF1FEE5EFE4F80819181806185
:10219000918380834FC080913301813009F045C025
:1021A0008091380190913901892B09F03EC010913E
:1021B0003601812F8150863008F03CC08091E800C4
:1021C000877F8093E8008091E8008E778093E80015
:1021D00068D280913401909135018031910519F0D8
:1021E000449741F511C0212F30E0F901EE0FFF1F98
:1021F000EE5EFE4F808191818E7F9183808330934C
:1022000024012093230116C0212F30E0F901EE0FA5
:10221000FF1FEE5EFE4F808191818F7E91838083D0
:10222000309326012093250105C080E190E060E213
:1022300070E0A1DE1F91089584B7877F84BF88E195
:102240000FB6F89480936000109260000FBE90E08B
:1022500080E80FB6F89480936100909361000FBE00
:1022600083E08093810081E080936F008AB1806F6A
:102270008AB98BB18F708BB9B4D2789408952F92AC
:102280003F924F925F926F927F928F929F92AF9206
:10229000BF92CF92DF92EF92FF920F931F93CCDF0A
:1022A0008BB18F7080618BB91092200180E091DC3E
:1022B0001AE0F4E04F2EE6E03E2E77E0272E6FE0A6
:1022C000F62E56E1E52E4DE2D42E37E1C32E28E15D
:1022D000B22E04E199E1A92E8AE1982EBBE18B2E62
:1022E000ACE17A2EFDE16F2EEEE15E2E80911301BE
:1022F000882309F4BBDC80911301853009F4E3DD08
:10230000E3D580912001823081F4809127018823D8
:1023100061F48BB18F7080628BB91093280181E0DA
:1023200090E0C4DC83E08093200180912001833021
:1023300081F48091250190912601019751F48BB190
:102340008F7080628BB91093280181E042DC40924B
:10235000200180912001853051F48091270188234C
:1023600031F437DC82E090E0A1DC309220018091F2
:102370002001863081F480912501909126010297F9
:1023800051F48BB18F7080628BB91093280182E079
:1023900020DC2092200180912001883091F48091EE
:1023A0002701882371F48BB18F7080628BB91093F1
:1023B000280180E00EDC83E090E078DC89E0809307
:1023C000200180912001893081F480912501909134
:1023D0002601039751F48BB18F7080628BB91093F3
:1023E000280183E0F6DB10932001809120018B30DF
:1023F00091F480912701882371F48BB18F708062F2
:102400008BB91093280180E0E4DB82E090E06DDC82
:102410008CE080932001809120018C3089F48091A0
:10242000230190912401029759F48BB18F7080623F
:102430008BB9109328018DE080932001F092270141
:10244000809120018D3081F480912701882361F4EF
:102450008BB18F7080628BB91093280184E090E07B
:1024600025DC8EE080932001809120018E3081F464
:102470008091250190912601049751F48BB18F70C2
:1024800080628BB91093280184E0A3DBF0922001D5
:10249000809120018031A9F480912701882389F45B
:1024A0008BB18F7080628BB91093280180E091DB33
:1024B00081E08093220185E090E0F8DB81E1809368
:1024C000200180912001813189F480912501909132
:1024D0002601059759F48BB18F7080628BB91093E8
:1024E000280185E076DB82E1809320018091200144
:1024F0008431A9F480912701882389F48BB18F70EE
:1025000080628BB91093280180E063DB81E08093C7
:10251000220183E090E0E9DB85E180932001809156
:102520002001853181F4809123019091240103974A
:1025300051F48BB18F7080628BB910932801E092B7
:102540002001D092270180912001863189F4809169
:102550002701882369F48BB18F7080628BB9109347
:10256000280180E036DB85E090E0BFDBC0922001EF
:1025700080912001873181F4809123019091240181
:10258000059751F48BB18F7080628BB9109328013D
:10259000B09220010093270180912001883189F4B5
:1025A00080912701882369F48BB18F7080628BB989
:1025B0001093280180E00DDB84E090E096DBA09290
:1025C000200180912001893181F480912301909133
:1025D0002401049751F48BB18F7080628BB91093F2
:1025E00028019092200100932701809120018A31D7
:1025F00089F480912701882369F48BB18F70806200
:102600008BB91093280180E0E4DA81E090E06DDB83
:1026100080922001809120018B3151F4809123011F
:1026200090912401019721F47092200100932701D9
:10263000809120018C3151F480912701882331F45D
:10264000C8DA86E090E032DB6092200180912001C0
:102650008D3151F48091250190912601069721F446
:1026600086E0B7DA50922001809120018F3109F085
:102670003DCE8BB18F7080628BB938CE8093E900EC
:102680008091EB0081608093EB001092ED006093ED
:10269000EC004093ED008091EE00881F8827881F92
:1026A00008958091320188239CF404C08091310107
:1026B0008823B9F08091E80082FFF8CF8091E8008C
:1026C0008B778093E800089580913101882349F049
:1026D0008091E80080FFF8CF8091E8008E778093AA
:1026E000E80008954091E4005091E50024E68091CF
:1026F000EC0080FF05C08091E80080FF05C022C08B
:102700008091E80082FD1EC080913101882311F480
:1027100082E00895853011F483E008958091EB0004
:1027200085FF02C081E008958091E4009091E5006A
:1027300084179507E1F2222311F484E008952150D3
:10274000AC01D5CF80E0089555D05CD08091D80001
:10275000982F9F779093D80080688093D8008CE062
:1027600089BD89B5826089BD09B400FEFDCF809125
:10277000D8008F7D8093D8008091D70080688093A7
:10278000D7001092310110922F0110922E01109259
:102790002D018091E0008B7F8093E0008091D80034
:1027A00081608093D80080E060E042E067DF809144
:1027B000E1008E7F8093E1008091E2008160809350
:1027C000E2008091E20088608093E2008091E00066
:1027D0008E7F8093E0008091D80080618093D80044
:1027E0000895E7EDF0E080818160808381E080934F
:1027F0003001AACFE8EDF0E080818C7F80831092D9
:10280000E20008951092DA001092E10008951F92FC
:102810000F920FB60F920BB60F9211242F933F9386
:102820004F935F936F937F938F939F93AF93BF93D8
:10283000EF93FF938091DA0080FF15C08091D8005C
:1028400080FF11C08091DA008E7F8093DA00809142
:10285000D90080FF05C081E0809331012EDB03C0E9
:10286000109231012BDB8091E10080FF1DC080912F
:10287000E20080FF19C08091E1008E7F8093E1002B
:102880008091E2008E7F8093E2008091E20080617F
:102890008093E2008091D80080628093D80019BCB8
:1028A00085E0809331010BDB8091E10084FF2EC035
:1028B0008091E20084FF2AC08CE089BD89B58260E6
:1028C00089BD09B400FEFDCF8091D8008F7D809333
:1028D000D8008091E1008F7E8093E1008091E2003A
:1028E0008F7E8093E2008091E20081608093E2001D
:1028F00080912F01882331F48091E30087FD02C08D
:1029000081E001C084E080933101DADA8091E10056
:1029100083FF22C08091E20083FF1EC08091E1000E
:10292000877F8093E10082E08093310110922F0134
:102930008091E1008E7F8093E1008091E2008E7FA4
:102940008093E2008091E20080618093E20080E069
:1029500060E042E093DEB5DA8091E10082FF0AC0D8
:102960008091E20082FF06C08091E1008B7F80931E
:10297000E100A8DAFF91EF91BF91AF919F918F9104
:102980007F916F915F914F913F912F910F900BBE6F
:102990000F900FBE0F901F9018950F931F93DF930A
:1029A000CF93CDB7DEB7AC970FB6F894DEBF0FBEAE
:1029B000CDBFE2E3F1E08091F100819321E0EA33C1
:1029C000F207C9F78091320130913301353009F4B3
:1029D00087C0363040F43130C9F1313070F03330D7
:1029E00009F02BC133C0383009F4EAC0393009F49A
:1029F000FAC0363009F021C190C0803821F0823809
:102A000009F01BC108C080912E01882311F093E0CA
:102A100013C091E011C08091360187708093E90066
:102A20008091EB0090E025E0969587952A95E1F757
:102A3000982F91701092E9008091E800877F809331
:102A4000E8009093F1001092F100C6C0882319F0BD
:102A5000823009F0F2C090E08F719070009721F001
:102A6000029709F0EBC00CC080913401813009F06D
:102A7000E5C010922E01333069F580932E012AC0F3
:102A800080913401882331F520913601277009F4B3
:102A9000D5C02093E9008091EB0080FF1BC033304C
:102AA00021F48091EB00806213C08091EB00806183
:102AB0008093EB0081E090E002C0880F991F2A9577
:102AC000E2F78093EA001092EA008091EB008860C0
:102AD0008093EB001092E9008091E800877F7FC02F
:102AE000882309F0AAC0109134011F770FB7F8941A
:102AF0008091E800877F8093E800D3DD8091E80033
:102B000080FFFCCF112311F482E001C083E08093A9
:102B10003101812F4ED80FBF91C080913401909127
:102B2000350123E08C3D920799F583E08C838AE29E
:102B30008B835FB7F894DE0115964EE020E030E01D
:102B400061E2E42FF0E060935700849120FF03C01E
:102B500082958F704F5F982F9F70892F805D8A3389
:102B600008F0895F8C9311961C9211972F5F3F4F4D
:102B700012962431310529F75FBF8091E800877FE5
:102B80008093E800CE0103966AE270E070D012C034
:102B900060913601AE014F5F5F4FC6D8BC01009710
:102BA00009F44CC08091E800877F8093E800898118
:102BB0009A81BBD08091E8008B778093E8003EC07B
:102BC000803809F03AC08091E800877F8093E80060
:102BD00080912F018093F1008091E8008E7780939F
:102BE000E8005FDD2BC0882341F580E091E060E0E4
:102BF000AE014F5F5F4F98D8892B01F1909134015E
:102C0000E981FA817196E491E917C0F08091E800BA
:102C1000877F8093E80090932F0143DD80912F01FF
:102C2000882331F48091E30087FD02C081E001C078
:102C300084E080933101B5D901C0CAD98091E80000
:102C400083FF0AC08091EB0080628093EB0080914B
:102C5000E800877F8093E800AC960FB6F894DEBF5B
:102C60000FBECDBFCF91DF911F910F9108959C01B1
:102C700040913801509139014617570718F4F9016E
:102C800090E03DC06115710511F0AB01F8CF809166
:102C9000E8008E778093E80040E050E0F0CF80912C
:102CA00031018823F1F18530F1F18091E80083FF53
:102CB00002C081E008958091E80082FD2CC08091DF
:102CC000E80080FF1CC02091F2003091F30007C0A3
:102CD00081918093F100415050402F5F3F4F41154B
:102CE000510519F02830310598F390E0283031056E
:102CF00009F491E08091E8008E778093E800411517
:102D0000510569F6992359F606C08091310188234F
:102D100041F0853041F08091E80082FFF6CF80E0FD
:102D2000089582E0089583E008959C014091380160
:102D3000509139014617570710F460E040C0611503
:102D4000710511F0AB01F9CF8091E8008E77809387
:102D5000E80040E050E0F1CF80913101882309F490
:102D600040C0853009F43FC08091E80083FF02C075
:102D700081E008958091E80082FD2DC08091E800F7
:102D800080FF1DC08091F2009091F30009C0F9010D
:102D90002F5F3F4FE491E093F10041505040019686
:102DA0004115510519F08830910588F360E00897C6
:102DB00009F461E08091E8008E778093E800411586
:102DC000510551F6662341F606C0809131018823F2
:102DD00041F0853041F08091E80082FFF6CF80E03D
:102DE000089582E0089583E00895BF92CF92DF9224
:102DF000EF92FF920F931F93CF93DF93F82EE92E5C
:102E00008B016A016FDCB82E882329F58F2D9E2D4A
:102E10009C01E9011DC08091E80085FD12C08091F0
:102E2000E8008E778093E800C114D10431F0F601F8
:102E30000995813011F485E00FC054DC882341F0FE
:102E40000BC0FE012196E491E093F1000150104087
:102E50000115110501F78B2DDF91CF911F910F9176
:102E6000FF90EF90DF90CF90BF900895FF920F9367
:102E70001F93CF93DF93EC018B0134DCF82E882372
:102E8000D1F01BC08091E80085FD12C08091E80060
:102E90008B778093E8000115110531F0F801099551
:102EA000813011F485E00AC01DDC882321F006C0C2
:102EB0008091F1002197209729F78F2DDF91CF91F5
:102EC0001F910F91FF9008951F93809131018823E6
:102ED00061F01091E9001092E9008091E80083FF11
:102EE00001C05BDD17701093E9001F910895F894FD
:022EF000FFCF12
:102EF200000100010001000100010001FFFFFFFFCE
:042F0200FFFFFFFFCF
:00000001FF
